{
  "_format": "hh-sol-artifact-1",
  "contractName": "StakingPool",
  "sourceName": "contracts/Staking.sol",
  "abi": [
    {
      "inputs": [
        {
          "internalType": "address",
          "name": "_stakingToken",
          "type": "address"
        },
        {
          "internalType": "address",
          "name": "_rewardsToken",
          "type": "address"
        }
      ],
      "stateMutability": "nonpayable",
      "type": "constructor"
    },
    {
      "inputs": [
        {
          "internalType": "address",
          "name": "owner",
          "type": "address"
        }
      ],
      "name": "OwnableInvalidOwner",
      "type": "error"
    },
    {
      "inputs": [
        {
          "internalType": "address",
          "name": "account",
          "type": "address"
        }
      ],
      "name": "OwnableUnauthorizedAccount",
      "type": "error"
    },
    {
      "inputs": [],
      "name": "ReentrancyGuardReentrantCall",
      "type": "error"
    },
    {
      "inputs": [
        {
          "internalType": "address",
          "name": "token",
          "type": "address"
        }
      ],
      "name": "SafeERC20FailedOperation",
      "type": "error"
    },
    {
      "anonymous": false,
      "inputs": [
        {
          "indexed": true,
          "internalType": "address",
          "name": "previousOwner",
          "type": "address"
        },
        {
          "indexed": true,
          "internalType": "address",
          "name": "newOwner",
          "type": "address"
        }
      ],
      "name": "OwnershipTransferred",
      "type": "event"
    },
    {
      "anonymous": false,
      "inputs": [
        {
          "indexed": false,
          "internalType": "uint256",
          "name": "reward",
          "type": "uint256"
        }
      ],
      "name": "RewardAdded",
      "type": "event"
    },
    {
      "anonymous": false,
      "inputs": [
        {
          "indexed": true,
          "internalType": "address",
          "name": "user",
          "type": "address"
        },
        {
          "indexed": false,
          "internalType": "uint256",
          "name": "reward",
          "type": "uint256"
        }
      ],
      "name": "RewardPaid",
      "type": "event"
    },
    {
      "anonymous": false,
      "inputs": [
        {
          "indexed": true,
          "internalType": "address",
          "name": "user",
          "type": "address"
        },
        {
          "indexed": false,
          "internalType": "uint256",
          "name": "amount",
          "type": "uint256"
        }
      ],
      "name": "Staked",
      "type": "event"
    },
    {
      "anonymous": false,
      "inputs": [
        {
          "indexed": true,
          "internalType": "address",
          "name": "user",
          "type": "address"
        },
        {
          "indexed": false,
          "internalType": "uint256",
          "name": "amount",
          "type": "uint256"
        }
      ],
      "name": "Withdrawn",
      "type": "event"
    },
    {
      "inputs": [
        {
          "internalType": "address",
          "name": "",
          "type": "address"
        }
      ],
      "name": "balanceOf",
      "outputs": [
        {
          "internalType": "uint256",
          "name": "",
          "type": "uint256"
        }
      ],
      "stateMutability": "view",
      "type": "function"
    },
    {
      "inputs": [],
      "name": "duration",
      "outputs": [
        {
          "internalType": "uint256",
          "name": "",
          "type": "uint256"
        }
      ],
      "stateMutability": "view",
      "type": "function"
    },
    {
      "inputs": [
        {
          "internalType": "address",
          "name": "_account",
          "type": "address"
        }
      ],
      "name": "earned",
      "outputs": [
        {
          "internalType": "uint256",
          "name": "",
          "type": "uint256"
        }
      ],
      "stateMutability": "view",
      "type": "function"
    },
    {
      "inputs": [],
      "name": "exit",
      "outputs": [],
      "stateMutability": "nonpayable",
      "type": "function"
    },
    {
      "inputs": [],
      "name": "finishAt",
      "outputs": [
        {
          "internalType": "uint32",
          "name": "",
          "type": "uint32"
        }
      ],
      "stateMutability": "view",
      "type": "function"
    },
    {
      "inputs": [],
      "name": "getReward",
      "outputs": [],
      "stateMutability": "nonpayable",
      "type": "function"
    },
    {
      "inputs": [],
      "name": "lastTimeRewardApplicable",
      "outputs": [
        {
          "internalType": "uint256",
          "name": "",
          "type": "uint256"
        }
      ],
      "stateMutability": "view",
      "type": "function"
    },
    {
      "inputs": [
        {
          "internalType": "uint256",
          "name": "_amount",
          "type": "uint256"
        }
      ],
      "name": "notifyRewardAmount",
      "outputs": [],
      "stateMutability": "nonpayable",
      "type": "function"
    },
    {
      "inputs": [],
      "name": "owner",
      "outputs": [
        {
          "internalType": "address",
          "name": "",
          "type": "address"
        }
      ],
      "stateMutability": "view",
      "type": "function"
    },
    {
      "inputs": [],
      "name": "renounceOwnership",
      "outputs": [],
      "stateMutability": "nonpayable",
      "type": "function"
    },
    {
      "inputs": [],
      "name": "rewardPerToken",
      "outputs": [
        {
          "internalType": "uint256",
          "name": "",
          "type": "uint256"
        }
      ],
      "stateMutability": "view",
      "type": "function"
    },
    {
      "inputs": [],
      "name": "rewardPerTokenStored",
      "outputs": [
        {
          "internalType": "uint192",
          "name": "",
          "type": "uint192"
        }
      ],
      "stateMutability": "view",
      "type": "function"
    },
    {
      "inputs": [],
      "name": "rewardRate",
      "outputs": [
        {
          "internalType": "uint256",
          "name": "",
          "type": "uint256"
        }
      ],
      "stateMutability": "view",
      "type": "function"
    },
    {
      "inputs": [
        {
          "internalType": "address",
          "name": "",
          "type": "address"
        }
      ],
      "name": "rewards",
      "outputs": [
        {
          "internalType": "uint256",
          "name": "",
          "type": "uint256"
        }
      ],
      "stateMutability": "view",
      "type": "function"
    },
    {
      "inputs": [],
      "name": "rewardsToken",
      "outputs": [
        {
          "internalType": "contract IERC20",
          "name": "",
          "type": "address"
        }
      ],
      "stateMutability": "view",
      "type": "function"
    },
    {
      "inputs": [
        {
          "internalType": "uint256",
          "name": "_duration",
          "type": "uint256"
        }
      ],
      "name": "setRewardsDuration",
      "outputs": [],
      "stateMutability": "nonpayable",
      "type": "function"
    },
    {
      "inputs": [
        {
          "internalType": "uint256",
          "name": "_amount",
          "type": "uint256"
        }
      ],
      "name": "stake",
      "outputs": [],
      "stateMutability": "nonpayable",
      "type": "function"
    },
    {
      "inputs": [],
      "name": "stakingToken",
      "outputs": [
        {
          "internalType": "contract IERC20",
          "name": "",
          "type": "address"
        }
      ],
      "stateMutability": "view",
      "type": "function"
    },
    {
      "inputs": [],
      "name": "totalSupply",
      "outputs": [
        {
          "internalType": "uint256",
          "name": "",
          "type": "uint256"
        }
      ],
      "stateMutability": "view",
      "type": "function"
    },
    {
      "inputs": [
        {
          "internalType": "address",
          "name": "newOwner",
          "type": "address"
        }
      ],
      "name": "transferOwnership",
      "outputs": [],
      "stateMutability": "nonpayable",
      "type": "function"
    },
    {
      "inputs": [],
      "name": "updatedAt",
      "outputs": [
        {
          "internalType": "uint32",
          "name": "",
          "type": "uint32"
        }
      ],
      "stateMutability": "view",
      "type": "function"
    },
    {
      "inputs": [
        {
          "internalType": "address",
          "name": "",
          "type": "address"
        }
      ],
      "name": "userRewardPerTokenPaid",
      "outputs": [
        {
          "internalType": "uint256",
          "name": "",
          "type": "uint256"
        }
      ],
      "stateMutability": "view",
      "type": "function"
    },
    {
      "inputs": [
        {
          "internalType": "uint256",
          "name": "_amount",
          "type": "uint256"
        }
      ],
      "name": "withdraw",
      "outputs": [],
      "stateMutability": "nonpayable",
      "type": "function"
    }
  ],
  "bytecode": "0x60c060405234801561001057600080fd5b506040516122c63803806122c683398181016040528101906100329190610255565b336001600081905550600073ffffffffffffffffffffffffffffffffffffffff168173ffffffffffffffffffffffffffffffffffffffff16036100ad5760006040517f1e4fbdf70000000000000000000000000000000000000000000000000000000081526004016100a491906102a4565b60405180910390fd5b6100bc8161012c60201b60201c565b508173ffffffffffffffffffffffffffffffffffffffff1660808173ffffffffffffffffffffffffffffffffffffffff16815250508073ffffffffffffffffffffffffffffffffffffffff1660a08173ffffffffffffffffffffffffffffffffffffffff168152505050506102bf565b6000600160009054906101000a900473ffffffffffffffffffffffffffffffffffffffff16905081600160006101000a81548173ffffffffffffffffffffffffffffffffffffffff021916908373ffffffffffffffffffffffffffffffffffffffff1602179055508173ffffffffffffffffffffffffffffffffffffffff168173ffffffffffffffffffffffffffffffffffffffff167f8be0079c531659141344cd1fd0a4f28419497f9722a3daafe3b4186f6b6457e060405160405180910390a35050565b600080fd5b600073ffffffffffffffffffffffffffffffffffffffff82169050919050565b6000610222826101f7565b9050919050565b61023281610217565b811461023d57600080fd5b50565b60008151905061024f81610229565b92915050565b6000806040838503121561026c5761026b6101f2565b5b600061027a85828601610240565b925050602061028b85828601610240565b9150509250929050565b61029e81610217565b82525050565b60006020820190506102b96000830184610295565b92915050565b60805160a051611fc661030060003960008181610ae601528181610e78015261144d0152600081816107ec01528181610f5b01526111d50152611fc66000f3fe608060405234801561001057600080fd5b506004361061014c5760003560e01c80637519ab50116100c3578063cc1a378f1161007c578063cc1a378f14610369578063cd3daf9d14610385578063d1af0c7d146103a3578063df136d65146103c1578063e9fad8ee146103df578063f2fde38b146103e95761014c565b80637519ab50146102a55780637b0a47ee146102c357806380faa57d146102e15780638b876347146102ff5780638da5cb5b1461032f578063a694fc3a1461034d5761014c565b80633c6b16ab116101155780633c6b16ab146102095780633d18b9121461022557806367d3b4881461022f57806370a082311461024d578063715018a61461027d57806372f702f3146102875761014c565b80628cc262146101515780630700037d146101815780630fb5a6b4146101b157806318160ddd146101cf5780632e1a7d4d146101ed575b600080fd5b61016b60048036038101906101669190611936565b610405565b604051610178919061197c565b60405180910390f35b61019b60048036038101906101969190611936565b610507565b6040516101a8919061197c565b60405180910390f35b6101b961051f565b6040516101c6919061197c565b60405180910390f35b6101d7610525565b6040516101e4919061197c565b60405180910390f35b610207600480360381019061020291906119c3565b61052b565b005b610223600480360381019061021e91906119c3565b61088a565b005b61022d610c59565b005b610237610f17565b6040516102449190611a0f565b60405180910390f35b61026760048036038101906102629190611936565b610f2d565b604051610274919061197c565b60405180910390f35b610285610f45565b005b61028f610f59565b60405161029c9190611a89565b60405180910390f35b6102ad610f7d565b6040516102ba9190611a0f565b60405180910390f35b6102cb610f93565b6040516102d8919061197c565b60405180910390f35b6102e9610f99565b6040516102f6919061197c565b60405180910390f35b61031960048036038101906103149190611936565b610fc2565b604051610326919061197c565b60405180910390f35b610337610fda565b6040516103449190611ab3565b60405180910390f35b610367600480360381019061036291906119c3565b611004565b005b610383600480360381019061037e91906119c3565b6112e3565b005b61038d61134f565b60405161039a919061197c565b60405180910390f35b6103ab61144b565b6040516103b89190611a89565b60405180910390f35b6103c961146f565b6040516103d69190611b01565b60405180910390f35b6103e7611499565b005b61040360048036038101906103fe9190611936565b6114eb565b005b6000600760008373ffffffffffffffffffffffffffffffffffffffff1673ffffffffffffffffffffffffffffffffffffffff16815260200190815260200160002054670de0b6b3a7640000600660008573ffffffffffffffffffffffffffffffffffffffff1673ffffffffffffffffffffffffffffffffffffffff1681526020019081526020016000205461049861134f565b6104a29190611b4b565b600960008673ffffffffffffffffffffffffffffffffffffffff1673ffffffffffffffffffffffffffffffffffffffff168152602001908152602001600020546104ec9190611b7f565b6104f69190611bf0565b6105009190611c21565b9050919050565b60076020528060005260406000206000915090505481565b60025481565b60085481565b610533611571565b3361053c61134f565b600560006101000a81548177ffffffffffffffffffffffffffffffffffffffffffffffff021916908377ffffffffffffffffffffffffffffffffffffffffffffffff16021790555061058c610f99565b600360046101000a81548163ffffffff021916908363ffffffff160217905550600073ffffffffffffffffffffffffffffffffffffffff168173ffffffffffffffffffffffffffffffffffffffff16146106b1576105e981610405565b600760008373ffffffffffffffffffffffffffffffffffffffff1673ffffffffffffffffffffffffffffffffffffffff16815260200190815260200160002081905550600560009054906101000a900477ffffffffffffffffffffffffffffffffffffffffffffffff1677ffffffffffffffffffffffffffffffffffffffffffffffff16600660008373ffffffffffffffffffffffffffffffffffffffff1673ffffffffffffffffffffffffffffffffffffffff168152602001908152602001600020819055505b600082116106f4576040517f08c379a00000000000000000000000000000000000000000000000000000000081526004016106eb90611cb2565b60405180910390fd5b81600960003373ffffffffffffffffffffffffffffffffffffffff1673ffffffffffffffffffffffffffffffffffffffff168152602001908152602001600020541015610776576040517f08c379a000000000000000000000000000000000000000000000000000000000815260040161076d90611d1e565b60405180910390fd5b81600960003373ffffffffffffffffffffffffffffffffffffffff1673ffffffffffffffffffffffffffffffffffffffff16815260200190815260200160002060008282546107c59190611b4b565b9250508190555081600860008282546107de9190611b4b565b9250508190555061083033837f000000000000000000000000000000000000000000000000000000000000000073ffffffffffffffffffffffffffffffffffffffff166115b79092919063ffffffff16565b3373ffffffffffffffffffffffffffffffffffffffff167f7084f5476618d8e60b11ef0d7d3f06914655adb8793e28ff7f018d4c76d505d583604051610876919061197c565b60405180910390a250610887611636565b50565b610892611640565b600061089c61134f565b600560006101000a81548177ffffffffffffffffffffffffffffffffffffffffffffffff021916908377ffffffffffffffffffffffffffffffffffffffffffffffff1602179055506108ec610f99565b600360046101000a81548163ffffffff021916908363ffffffff160217905550600073ffffffffffffffffffffffffffffffffffffffff168173ffffffffffffffffffffffffffffffffffffffff1614610a115761094981610405565b600760008373ffffffffffffffffffffffffffffffffffffffff1673ffffffffffffffffffffffffffffffffffffffff16815260200190815260200160002081905550600560009054906101000a900477ffffffffffffffffffffffffffffffffffffffffffffffff1677ffffffffffffffffffffffffffffffffffffffffffffffff16600660008373ffffffffffffffffffffffffffffffffffffffff1673ffffffffffffffffffffffffffffffffffffffff168152602001908152602001600020819055505b600360009054906101000a900463ffffffff1663ffffffff164210610a495760025482610a3e9190611bf0565b600481905550610a9f565b600060045442600360009054906101000a900463ffffffff1663ffffffff16610a729190611b4b565b610a7c9190611b7f565b90506002548184610a8d9190611c21565b610a979190611bf0565b600481905550505b600060045411610ae4576040517f08c379a0000000000000000000000000000000000000000000000000000000008152600401610adb90611d8a565b60405180910390fd5b7f000000000000000000000000000000000000000000000000000000000000000073ffffffffffffffffffffffffffffffffffffffff166370a08231306040518263ffffffff1660e01b8152600401610b3d9190611ab3565b602060405180830381865afa158015610b5a573d6000803e3d6000fd5b505050506040513d601f19601f82011682018060405250810190610b7e9190611dbf565b600254600454610b8e9190611b7f565b1115610bcf576040517f08c379a0000000000000000000000000000000000000000000000000000000008152600401610bc690611e38565b60405180910390fd5b60025442610bdd9190611c21565b600360006101000a81548163ffffffff021916908363ffffffff16021790555042600360046101000a81548163ffffffff021916908363ffffffff1602179055507fde88a922e0d3b88b24e9623efeb464919c6bf9f66857a65e2bfcf2ce87a9433d82604051610c4d919061197c565b60405180910390a15050565b610c61611571565b33610c6a61134f565b600560006101000a81548177ffffffffffffffffffffffffffffffffffffffffffffffff021916908377ffffffffffffffffffffffffffffffffffffffffffffffff160217905550610cba610f99565b600360046101000a81548163ffffffff021916908363ffffffff160217905550600073ffffffffffffffffffffffffffffffffffffffff168173ffffffffffffffffffffffffffffffffffffffff1614610ddf57610d1781610405565b600760008373ffffffffffffffffffffffffffffffffffffffff1673ffffffffffffffffffffffffffffffffffffffff16815260200190815260200160002081905550600560009054906101000a900477ffffffffffffffffffffffffffffffffffffffffffffffff1677ffffffffffffffffffffffffffffffffffffffffffffffff16600660008373ffffffffffffffffffffffffffffffffffffffff1673ffffffffffffffffffffffffffffffffffffffff168152602001908152602001600020819055505b6000600760003373ffffffffffffffffffffffffffffffffffffffff1673ffffffffffffffffffffffffffffffffffffffff1681526020019081526020016000205490506000811115610f0b576000600760003373ffffffffffffffffffffffffffffffffffffffff1673ffffffffffffffffffffffffffffffffffffffff16815260200190815260200160002081905550610ebc33827f000000000000000000000000000000000000000000000000000000000000000073ffffffffffffffffffffffffffffffffffffffff166115b79092919063ffffffff16565b3373ffffffffffffffffffffffffffffffffffffffff167fe2403640ba68fed3a2f88b7557551d1993f84b99bb10ff833f0cf8db0c5e048682604051610f02919061197c565b60405180910390a25b5050610f15611636565b565b600360009054906101000a900463ffffffff1681565b60096020528060005260406000206000915090505481565b610f4d611640565b610f5760006116c7565b565b7f000000000000000000000000000000000000000000000000000000000000000081565b600360049054906101000a900463ffffffff1681565b60045481565b6000610fbd600360009054906101000a900463ffffffff1663ffffffff164261178d565b905090565b60066020528060005260406000206000915090505481565b6000600160009054906101000a900473ffffffffffffffffffffffffffffffffffffffff16905090565b61100c611571565b3361101561134f565b600560006101000a81548177ffffffffffffffffffffffffffffffffffffffffffffffff021916908377ffffffffffffffffffffffffffffffffffffffffffffffff160217905550611065610f99565b600360046101000a81548163ffffffff021916908363ffffffff160217905550600073ffffffffffffffffffffffffffffffffffffffff168173ffffffffffffffffffffffffffffffffffffffff161461118a576110c281610405565b600760008373ffffffffffffffffffffffffffffffffffffffff1673ffffffffffffffffffffffffffffffffffffffff16815260200190815260200160002081905550600560009054906101000a900477ffffffffffffffffffffffffffffffffffffffffffffffff1677ffffffffffffffffffffffffffffffffffffffffffffffff16600660008373ffffffffffffffffffffffffffffffffffffffff1673ffffffffffffffffffffffffffffffffffffffff168152602001908152602001600020819055505b600082116111cd576040517f08c379a00000000000000000000000000000000000000000000000000000000081526004016111c490611ea4565b60405180910390fd5b61121a3330847f000000000000000000000000000000000000000000000000000000000000000073ffffffffffffffffffffffffffffffffffffffff166117a7909392919063ffffffff16565b81600960003373ffffffffffffffffffffffffffffffffffffffff1673ffffffffffffffffffffffffffffffffffffffff16815260200190815260200160002060008282546112699190611c21565b9250508190555081600860008282546112829190611c21565b925050819055503373ffffffffffffffffffffffffffffffffffffffff167f9e71bc8eea02a63969f509818f2dafb9254532904319f9dbda79b67bd34a5f3d836040516112cf919061197c565b60405180910390a2506112e0611636565b50565b6112eb611640565b42600360009054906101000a900463ffffffff1663ffffffff1610611345576040517f08c379a000000000000000000000000000000000000000000000000000000000815260040161133c90611f10565b60405180910390fd5b8060028190555050565b600080600854036113a257600560009054906101000a900477ffffffffffffffffffffffffffffffffffffffffffffffff1677ffffffffffffffffffffffffffffffffffffffffffffffff169050611448565b600854670de0b6b3a7640000600360049054906101000a900463ffffffff1663ffffffff166113cf610f99565b6113d99190611b4b565b6004546113e69190611b7f565b6113f09190611b7f565b6113fa9190611bf0565b600560009054906101000a900477ffffffffffffffffffffffffffffffffffffffffffffffff1677ffffffffffffffffffffffffffffffffffffffffffffffff166114459190611c21565b90505b90565b7f000000000000000000000000000000000000000000000000000000000000000081565b600560009054906101000a900477ffffffffffffffffffffffffffffffffffffffffffffffff1681565b6114e1600960003373ffffffffffffffffffffffffffffffffffffffff1673ffffffffffffffffffffffffffffffffffffffff1681526020019081526020016000205461052b565b6114e9610c59565b565b6114f3611640565b600073ffffffffffffffffffffffffffffffffffffffff168173ffffffffffffffffffffffffffffffffffffffff16036115655760006040517f1e4fbdf700000000000000000000000000000000000000000000000000000000815260040161155c9190611ab3565b60405180910390fd5b61156e816116c7565b50565b6002600054036115ad576040517f3ee5aeb500000000000000000000000000000000000000000000000000000000815260040160405180910390fd5b6002600081905550565b611631838473ffffffffffffffffffffffffffffffffffffffff1663a9059cbb85856040516024016115ea929190611f30565b604051602081830303815290604052915060e01b6020820180517bffffffffffffffffffffffffffffffffffffffffffffffffffffffff8381831617835250505050611829565b505050565b6001600081905550565b6116486118cb565b73ffffffffffffffffffffffffffffffffffffffff16611666610fda565b73ffffffffffffffffffffffffffffffffffffffff16146116c5576116896118cb565b6040517f118cdaa70000000000000000000000000000000000000000000000000000000081526004016116bc9190611ab3565b60405180910390fd5b565b6000600160009054906101000a900473ffffffffffffffffffffffffffffffffffffffff16905081600160006101000a81548173ffffffffffffffffffffffffffffffffffffffff021916908373ffffffffffffffffffffffffffffffffffffffff1602179055508173ffffffffffffffffffffffffffffffffffffffff168173ffffffffffffffffffffffffffffffffffffffff167f8be0079c531659141344cd1fd0a4f28419497f9722a3daafe3b4186f6b6457e060405160405180910390a35050565b60008183111561179d578161179f565b825b905092915050565b611823848573ffffffffffffffffffffffffffffffffffffffff166323b872dd8686866040516024016117dc93929190611f59565b604051602081830303815290604052915060e01b6020820180517bffffffffffffffffffffffffffffffffffffffffffffffffffffffff8381831617835250505050611829565b50505050565b600080602060008451602086016000885af18061184c576040513d6000823e3d81fd5b3d925060005191505060008214611867576001811415611883565b60008473ffffffffffffffffffffffffffffffffffffffff163b145b156118c557836040517f5274afe70000000000000000000000000000000000000000000000000000000081526004016118bc9190611ab3565b60405180910390fd5b50505050565b600033905090565b600080fd5b600073ffffffffffffffffffffffffffffffffffffffff82169050919050565b6000611903826118d8565b9050919050565b611913816118f8565b811461191e57600080fd5b50565b6000813590506119308161190a565b92915050565b60006020828403121561194c5761194b6118d3565b5b600061195a84828501611921565b91505092915050565b6000819050919050565b61197681611963565b82525050565b6000602082019050611991600083018461196d565b92915050565b6119a081611963565b81146119ab57600080fd5b50565b6000813590506119bd81611997565b92915050565b6000602082840312156119d9576119d86118d3565b5b60006119e7848285016119ae565b91505092915050565b600063ffffffff82169050919050565b611a09816119f0565b82525050565b6000602082019050611a246000830184611a00565b92915050565b6000819050919050565b6000611a4f611a4a611a45846118d8565b611a2a565b6118d8565b9050919050565b6000611a6182611a34565b9050919050565b6000611a7382611a56565b9050919050565b611a8381611a68565b82525050565b6000602082019050611a9e6000830184611a7a565b92915050565b611aad816118f8565b82525050565b6000602082019050611ac86000830184611aa4565b92915050565b600077ffffffffffffffffffffffffffffffffffffffffffffffff82169050919050565b611afb81611ace565b82525050565b6000602082019050611b166000830184611af2565b92915050565b7f4e487b7100000000000000000000000000000000000000000000000000000000600052601160045260246000fd5b6000611b5682611963565b9150611b6183611963565b9250828203905081811115611b7957611b78611b1c565b5b92915050565b6000611b8a82611963565b9150611b9583611963565b9250828202611ba381611963565b91508282048414831517611bba57611bb9611b1c565b5b5092915050565b7f4e487b7100000000000000000000000000000000000000000000000000000000600052601260045260246000fd5b6000611bfb82611963565b9150611c0683611963565b925082611c1657611c15611bc1565b5b828204905092915050565b6000611c2c82611963565b9150611c3783611963565b9250828201905080821115611c4f57611c4e611b1c565b5b92915050565b600082825260208201905092915050565b7f43616e6e6f742077697468647261772030000000000000000000000000000000600082015250565b6000611c9c601183611c55565b9150611ca782611c66565b602082019050919050565b60006020820190508181036000830152611ccb81611c8f565b9050919050565b7f496e73756666696369656e742062616c616e6365000000000000000000000000600082015250565b6000611d08601483611c55565b9150611d1382611cd2565b602082019050919050565b60006020820190508181036000830152611d3781611cfb565b9050919050565b7f526577617264207261746520746f6f206c6f7700000000000000000000000000600082015250565b6000611d74601383611c55565b9150611d7f82611d3e565b602082019050919050565b60006020820190508181036000830152611da381611d67565b9050919050565b600081519050611db981611997565b92915050565b600060208284031215611dd557611dd46118d3565b5b6000611de384828501611daa565b91505092915050565b7f52657761726420616d6f756e74203e2062616c616e6365000000000000000000600082015250565b6000611e22601783611c55565b9150611e2d82611dec565b602082019050919050565b60006020820190508181036000830152611e5181611e15565b9050919050565b7f43616e6e6f74207374616b652030000000000000000000000000000000000000600082015250565b6000611e8e600e83611c55565b9150611e9982611e58565b602082019050919050565b60006020820190508181036000830152611ebd81611e81565b9050919050565b7f526577617264206475726174696f6e206e6f742066696e697368656400000000600082015250565b6000611efa601c83611c55565b9150611f0582611ec4565b602082019050919050565b60006020820190508181036000830152611f2981611eed565b9050919050565b6000604082019050611f456000830185611aa4565b611f52602083018461196d565b9392505050565b6000606082019050611f6e6000830186611aa4565b611f7b6020830185611aa4565b611f88604083018461196d565b94935050505056fea2646970667358221220fccfe4ab9c5a01b11195ebbba021e467aa6d3f5093046c56be4121bcca2a911d64736f6c63430008210033",
  "linkReferences": {},
  "deployedLinkReferences": {}
}