{
  "_format": "hh-sol-artifact-1",
  "contractName": "StakingPool",
  "sourceName": "contracts/Stacking.sol",
  "abi": [
    {
      "inputs": [
        {
          "internalType": "address",
          "name": "_stakingToken",
          "type": "address"
        },
        {
          "internalType": "address",
          "name": "_rewardsToken",
          "type": "address"
        }
      ],
      "stateMutability": "nonpayable",
      "type": "constructor"
    },
    {
      "inputs": [
        {
          "internalType": "address",
          "name": "owner",
          "type": "address"
        }
      ],
      "name": "OwnableInvalidOwner",
      "type": "error"
    },
    {
      "inputs": [
        {
          "internalType": "address",
          "name": "account",
          "type": "address"
        }
      ],
      "name": "OwnableUnauthorizedAccount",
      "type": "error"
    },
    {
      "inputs": [],
      "name": "ReentrancyGuardReentrantCall",
      "type": "error"
    },
    {
      "inputs": [
        {
          "internalType": "address",
          "name": "token",
          "type": "address"
        }
      ],
      "name": "SafeERC20FailedOperation",
      "type": "error"
    },
    {
      "anonymous": false,
      "inputs": [
        {
          "indexed": true,
          "internalType": "address",
          "name": "previousOwner",
          "type": "address"
        },
        {
          "indexed": true,
          "internalType": "address",
          "name": "newOwner",
          "type": "address"
        }
      ],
      "name": "OwnershipTransferred",
      "type": "event"
    },
    {
      "anonymous": false,
      "inputs": [
        {
          "indexed": false,
          "internalType": "uint256",
          "name": "reward",
          "type": "uint256"
        }
      ],
      "name": "RewardAdded",
      "type": "event"
    },
    {
      "anonymous": false,
      "inputs": [
        {
          "indexed": true,
          "internalType": "address",
          "name": "user",
          "type": "address"
        },
        {
          "indexed": false,
          "internalType": "uint256",
          "name": "reward",
          "type": "uint256"
        }
      ],
      "name": "RewardPaid",
      "type": "event"
    },
    {
      "anonymous": false,
      "inputs": [
        {
          "indexed": true,
          "internalType": "address",
          "name": "user",
          "type": "address"
        },
        {
          "indexed": false,
          "internalType": "uint256",
          "name": "amount",
          "type": "uint256"
        }
      ],
      "name": "Staked",
      "type": "event"
    },
    {
      "anonymous": false,
      "inputs": [
        {
          "indexed": true,
          "internalType": "address",
          "name": "user",
          "type": "address"
        },
        {
          "indexed": false,
          "internalType": "uint256",
          "name": "amount",
          "type": "uint256"
        }
      ],
      "name": "Withdrawn",
      "type": "event"
    },
    {
      "inputs": [
        {
          "internalType": "address",
          "name": "",
          "type": "address"
        }
      ],
      "name": "balanceOf",
      "outputs": [
        {
          "internalType": "uint256",
          "name": "",
          "type": "uint256"
        }
      ],
      "stateMutability": "view",
      "type": "function"
    },
    {
      "inputs": [],
      "name": "duration",
      "outputs": [
        {
          "internalType": "uint256",
          "name": "",
          "type": "uint256"
        }
      ],
      "stateMutability": "view",
      "type": "function"
    },
    {
      "inputs": [
        {
          "internalType": "address",
          "name": "_account",
          "type": "address"
        }
      ],
      "name": "earned",
      "outputs": [
        {
          "internalType": "uint256",
          "name": "",
          "type": "uint256"
        }
      ],
      "stateMutability": "view",
      "type": "function"
    },
    {
      "inputs": [],
      "name": "exit",
      "outputs": [],
      "stateMutability": "nonpayable",
      "type": "function"
    },
    {
      "inputs": [],
      "name": "finishAt",
      "outputs": [
        {
          "internalType": "uint256",
          "name": "",
          "type": "uint256"
        }
      ],
      "stateMutability": "view",
      "type": "function"
    },
    {
      "inputs": [],
      "name": "getReward",
      "outputs": [],
      "stateMutability": "nonpayable",
      "type": "function"
    },
    {
      "inputs": [],
      "name": "lastTimeRewardApplicable",
      "outputs": [
        {
          "internalType": "uint256",
          "name": "",
          "type": "uint256"
        }
      ],
      "stateMutability": "view",
      "type": "function"
    },
    {
      "inputs": [
        {
          "internalType": "uint256",
          "name": "_amount",
          "type": "uint256"
        }
      ],
      "name": "notifyRewardAmount",
      "outputs": [],
      "stateMutability": "nonpayable",
      "type": "function"
    },
    {
      "inputs": [],
      "name": "owner",
      "outputs": [
        {
          "internalType": "address",
          "name": "",
          "type": "address"
        }
      ],
      "stateMutability": "view",
      "type": "function"
    },
    {
      "inputs": [],
      "name": "renounceOwnership",
      "outputs": [],
      "stateMutability": "nonpayable",
      "type": "function"
    },
    {
      "inputs": [],
      "name": "rewardPerToken",
      "outputs": [
        {
          "internalType": "uint256",
          "name": "",
          "type": "uint256"
        }
      ],
      "stateMutability": "view",
      "type": "function"
    },
    {
      "inputs": [],
      "name": "rewardPerTokenStored",
      "outputs": [
        {
          "internalType": "uint256",
          "name": "",
          "type": "uint256"
        }
      ],
      "stateMutability": "view",
      "type": "function"
    },
    {
      "inputs": [],
      "name": "rewardRate",
      "outputs": [
        {
          "internalType": "uint256",
          "name": "",
          "type": "uint256"
        }
      ],
      "stateMutability": "view",
      "type": "function"
    },
    {
      "inputs": [
        {
          "internalType": "address",
          "name": "",
          "type": "address"
        }
      ],
      "name": "rewards",
      "outputs": [
        {
          "internalType": "uint256",
          "name": "",
          "type": "uint256"
        }
      ],
      "stateMutability": "view",
      "type": "function"
    },
    {
      "inputs": [],
      "name": "rewardsToken",
      "outputs": [
        {
          "internalType": "contract IERC20",
          "name": "",
          "type": "address"
        }
      ],
      "stateMutability": "view",
      "type": "function"
    },
    {
      "inputs": [
        {
          "internalType": "uint256",
          "name": "_duration",
          "type": "uint256"
        }
      ],
      "name": "setRewardsDuration",
      "outputs": [],
      "stateMutability": "nonpayable",
      "type": "function"
    },
    {
      "inputs": [
        {
          "internalType": "uint256",
          "name": "_amount",
          "type": "uint256"
        }
      ],
      "name": "stake",
      "outputs": [],
      "stateMutability": "nonpayable",
      "type": "function"
    },
    {
      "inputs": [],
      "name": "stakingToken",
      "outputs": [
        {
          "internalType": "contract IERC20",
          "name": "",
          "type": "address"
        }
      ],
      "stateMutability": "view",
      "type": "function"
    },
    {
      "inputs": [],
      "name": "totalSupply",
      "outputs": [
        {
          "internalType": "uint256",
          "name": "",
          "type": "uint256"
        }
      ],
      "stateMutability": "view",
      "type": "function"
    },
    {
      "inputs": [
        {
          "internalType": "address",
          "name": "newOwner",
          "type": "address"
        }
      ],
      "name": "transferOwnership",
      "outputs": [],
      "stateMutability": "nonpayable",
      "type": "function"
    },
    {
      "inputs": [],
      "name": "updatedAt",
      "outputs": [
        {
          "internalType": "uint256",
          "name": "",
          "type": "uint256"
        }
      ],
      "stateMutability": "view",
      "type": "function"
    },
    {
      "inputs": [
        {
          "internalType": "address",
          "name": "",
          "type": "address"
        }
      ],
      "name": "userRewardPerTokenPaid",
      "outputs": [
        {
          "internalType": "uint256",
          "name": "",
          "type": "uint256"
        }
      ],
      "stateMutability": "view",
      "type": "function"
    },
    {
      "inputs": [
        {
          "internalType": "uint256",
          "name": "_amount",
          "type": "uint256"
        }
      ],
      "name": "withdraw",
      "outputs": [],
      "stateMutability": "nonpayable",
      "type": "function"
    }
  ],
  "bytecode": "0x60c06040523480156200001157600080fd5b5060405162001e9238038062001e92833981810160405281019062000037919062000267565b336001600081905550600073ffffffffffffffffffffffffffffffffffffffff168173ffffffffffffffffffffffffffffffffffffffff1603620000b55760006040517f1e4fbdf7000000000000000000000000000000000000000000000000000000008152600401620000ac9190620002bf565b60405180910390fd5b620000c6816200013760201b60201c565b508173ffffffffffffffffffffffffffffffffffffffff1660808173ffffffffffffffffffffffffffffffffffffffff16815250508073ffffffffffffffffffffffffffffffffffffffff1660a08173ffffffffffffffffffffffffffffffffffffffff16815250505050620002dc565b6000600160009054906101000a900473ffffffffffffffffffffffffffffffffffffffff16905081600160006101000a81548173ffffffffffffffffffffffffffffffffffffffff021916908373ffffffffffffffffffffffffffffffffffffffff1602179055508173ffffffffffffffffffffffffffffffffffffffff168173ffffffffffffffffffffffffffffffffffffffff167f8be0079c531659141344cd1fd0a4f28419497f9722a3daafe3b4186f6b6457e060405160405180910390a35050565b600080fd5b600073ffffffffffffffffffffffffffffffffffffffff82169050919050565b60006200022f8262000202565b9050919050565b620002418162000222565b81146200024d57600080fd5b50565b600081519050620002618162000236565b92915050565b60008060408385031215620002815762000280620001fd565b5b6000620002918582860162000250565b9250506020620002a48582860162000250565b9150509250929050565b620002b98162000222565b82525050565b6000602082019050620002d66000830184620002ae565b92915050565b60805160a051611b746200031e6000396000818161098601528181610c4a01526110a701526000818161075201528181610d1d0152610ed70152611b746000f3fe608060405234801561001057600080fd5b506004361061014c5760003560e01c80637519ab50116100c3578063cc1a378f1161007c578063cc1a378f14610369578063cd3daf9d14610385578063d1af0c7d146103a3578063df136d65146103c1578063e9fad8ee146103df578063f2fde38b146103e95761014c565b80637519ab50146102a55780637b0a47ee146102c357806380faa57d146102e15780638b876347146102ff5780638da5cb5b1461032f578063a694fc3a1461034d5761014c565b80633c6b16ab116101155780633c6b16ab146102095780633d18b9121461022557806367d3b4881461022f57806370a082311461024d578063715018a61461027d57806372f702f3146102875761014c565b80628cc262146101515780630700037d146101815780630fb5a6b4146101b157806318160ddd146101cf5780632e1a7d4d146101ed575b600080fd5b61016b6004803603810190610166919061156c565b610405565b60405161017891906115b2565b60405180910390f35b61019b6004803603810190610196919061156c565b610507565b6040516101a891906115b2565b60405180910390f35b6101b961051f565b6040516101c691906115b2565b60405180910390f35b6101d7610525565b6040516101e491906115b2565b60405180910390f35b610207600480360381019061020291906115f9565b61052b565b005b610223600480360381019061021e91906115f9565b6107f0565b005b61022d610ac5565b005b610237610ce9565b60405161024491906115b2565b60405180910390f35b6102676004803603810190610262919061156c565b610cef565b60405161027491906115b2565b60405180910390f35b610285610d07565b005b61028f610d1b565b60405161029c9190611685565b60405180910390f35b6102ad610d3f565b6040516102ba91906115b2565b60405180910390f35b6102cb610d45565b6040516102d891906115b2565b60405180910390f35b6102e9610d4b565b6040516102f691906115b2565b60405180910390f35b6103196004803603810190610314919061156c565b610d5e565b60405161032691906115b2565b60405180910390f35b610337610d76565b60405161034491906116af565b60405180910390f35b610367600480360381019061036291906115f9565b610da0565b005b610383600480360381019061037e91906115f9565b610fe5565b005b61038d61103b565b60405161039a91906115b2565b60405180910390f35b6103ab6110a5565b6040516103b89190611685565b60405180910390f35b6103c96110c9565b6040516103d691906115b2565b60405180910390f35b6103e76110cf565b005b61040360048036038101906103fe919061156c565b611121565b005b6000600860008373ffffffffffffffffffffffffffffffffffffffff1673ffffffffffffffffffffffffffffffffffffffff16815260200190815260200160002054670de0b6b3a7640000600760008573ffffffffffffffffffffffffffffffffffffffff1673ffffffffffffffffffffffffffffffffffffffff1681526020019081526020016000205461049861103b565b6104a291906116f9565b600a60008673ffffffffffffffffffffffffffffffffffffffff1673ffffffffffffffffffffffffffffffffffffffff168152602001908152602001600020546104ec919061172d565b6104f6919061179e565b61050091906117cf565b9050919050565b60086020528060005260406000206000915090505481565b60025481565b60095481565b6105336111a7565b3361053c61103b565b60068190555061054a610d4b565b600481905550600073ffffffffffffffffffffffffffffffffffffffff168173ffffffffffffffffffffffffffffffffffffffff16146106175761058d81610405565b600860008373ffffffffffffffffffffffffffffffffffffffff1673ffffffffffffffffffffffffffffffffffffffff16815260200190815260200160002081905550600654600760008373ffffffffffffffffffffffffffffffffffffffff1673ffffffffffffffffffffffffffffffffffffffff168152602001908152602001600020819055505b6000821161065a576040517f08c379a000000000000000000000000000000000000000000000000000000000815260040161065190611860565b60405180910390fd5b81600a60003373ffffffffffffffffffffffffffffffffffffffff1673ffffffffffffffffffffffffffffffffffffffff1681526020019081526020016000205410156106dc576040517f08c379a00000000000000000000000000000000000000000000000000000000081526004016106d3906118cc565b60405180910390fd5b81600a60003373ffffffffffffffffffffffffffffffffffffffff1673ffffffffffffffffffffffffffffffffffffffff168152602001908152602001600020600082825461072b91906116f9565b92505081905550816009600082825461074491906116f9565b9250508190555061079633837f000000000000000000000000000000000000000000000000000000000000000073ffffffffffffffffffffffffffffffffffffffff166111ed9092919063ffffffff16565b3373ffffffffffffffffffffffffffffffffffffffff167f7084f5476618d8e60b11ef0d7d3f06914655adb8793e28ff7f018d4c76d505d5836040516107dc91906115b2565b60405180910390a2506107ed61126c565b50565b6107f8611276565b600061080261103b565b600681905550610810610d4b565b600481905550600073ffffffffffffffffffffffffffffffffffffffff168173ffffffffffffffffffffffffffffffffffffffff16146108dd5761085381610405565b600860008373ffffffffffffffffffffffffffffffffffffffff1673ffffffffffffffffffffffffffffffffffffffff16815260200190815260200160002081905550600654600760008373ffffffffffffffffffffffffffffffffffffffff1673ffffffffffffffffffffffffffffffffffffffff168152602001908152602001600020819055505b60035442106108ff57600254826108f4919061179e565b60058190555061093f565b60006005544260035461091291906116f9565b61091c919061172d565b9050600254818461092d91906117cf565b610937919061179e565b600581905550505b600060055411610984576040517f08c379a000000000000000000000000000000000000000000000000000000000815260040161097b90611938565b60405180910390fd5b7f000000000000000000000000000000000000000000000000000000000000000073ffffffffffffffffffffffffffffffffffffffff166370a08231306040518263ffffffff1660e01b81526004016109dd91906116af565b602060405180830381865afa1580156109fa573d6000803e3d6000fd5b505050506040513d601f19601f82011682018060405250810190610a1e919061196d565b600254600554610a2e919061172d565b1115610a6f576040517f08c379a0000000000000000000000000000000000000000000000000000000008152600401610a66906119e6565b60405180910390fd5b60025442610a7d91906117cf565b600381905550426004819055507fde88a922e0d3b88b24e9623efeb464919c6bf9f66857a65e2bfcf2ce87a9433d82604051610ab991906115b2565b60405180910390a15050565b610acd6111a7565b33610ad661103b565b600681905550610ae4610d4b565b600481905550600073ffffffffffffffffffffffffffffffffffffffff168173ffffffffffffffffffffffffffffffffffffffff1614610bb157610b2781610405565b600860008373ffffffffffffffffffffffffffffffffffffffff1673ffffffffffffffffffffffffffffffffffffffff16815260200190815260200160002081905550600654600760008373ffffffffffffffffffffffffffffffffffffffff1673ffffffffffffffffffffffffffffffffffffffff168152602001908152602001600020819055505b6000600860003373ffffffffffffffffffffffffffffffffffffffff1673ffffffffffffffffffffffffffffffffffffffff1681526020019081526020016000205490506000811115610cdd576000600860003373ffffffffffffffffffffffffffffffffffffffff1673ffffffffffffffffffffffffffffffffffffffff16815260200190815260200160002081905550610c8e33827f000000000000000000000000000000000000000000000000000000000000000073ffffffffffffffffffffffffffffffffffffffff166111ed9092919063ffffffff16565b3373ffffffffffffffffffffffffffffffffffffffff167fe2403640ba68fed3a2f88b7557551d1993f84b99bb10ff833f0cf8db0c5e048682604051610cd491906115b2565b60405180910390a25b5050610ce761126c565b565b60035481565b600a6020528060005260406000206000915090505481565b610d0f611276565b610d1960006112fd565b565b7f000000000000000000000000000000000000000000000000000000000000000081565b60045481565b60055481565b6000610d59600354426113c3565b905090565b60076020528060005260406000206000915090505481565b6000600160009054906101000a900473ffffffffffffffffffffffffffffffffffffffff16905090565b610da86111a7565b33610db161103b565b600681905550610dbf610d4b565b600481905550600073ffffffffffffffffffffffffffffffffffffffff168173ffffffffffffffffffffffffffffffffffffffff1614610e8c57610e0281610405565b600860008373ffffffffffffffffffffffffffffffffffffffff1673ffffffffffffffffffffffffffffffffffffffff16815260200190815260200160002081905550600654600760008373ffffffffffffffffffffffffffffffffffffffff1673ffffffffffffffffffffffffffffffffffffffff168152602001908152602001600020819055505b60008211610ecf576040517f08c379a0000000000000000000000000000000000000000000000000000000008152600401610ec690611a52565b60405180910390fd5b610f1c3330847f000000000000000000000000000000000000000000000000000000000000000073ffffffffffffffffffffffffffffffffffffffff166113dd909392919063ffffffff16565b81600a60003373ffffffffffffffffffffffffffffffffffffffff1673ffffffffffffffffffffffffffffffffffffffff1681526020019081526020016000206000828254610f6b91906117cf565b925050819055508160096000828254610f8491906117cf565b925050819055503373ffffffffffffffffffffffffffffffffffffffff167f9e71bc8eea02a63969f509818f2dafb9254532904319f9dbda79b67bd34a5f3d83604051610fd191906115b2565b60405180910390a250610fe261126c565b50565b610fed611276565b4260035410611031576040517f08c379a000000000000000000000000000000000000000000000000000000000815260040161102890611abe565b60405180910390fd5b8060028190555050565b600080600954036110505760065490506110a2565b600954670de0b6b3a7640000600454611067610d4b565b61107191906116f9565b60055461107e919061172d565b611088919061172d565b611092919061179e565b60065461109f91906117cf565b90505b90565b7f000000000000000000000000000000000000000000000000000000000000000081565b60065481565b611117600a60003373ffffffffffffffffffffffffffffffffffffffff1673ffffffffffffffffffffffffffffffffffffffff1681526020019081526020016000205461052b565b61111f610ac5565b565b611129611276565b600073ffffffffffffffffffffffffffffffffffffffff168173ffffffffffffffffffffffffffffffffffffffff160361119b5760006040517f1e4fbdf700000000000000000000000000000000000000000000000000000000815260040161119291906116af565b60405180910390fd5b6111a4816112fd565b50565b6002600054036111e3576040517f3ee5aeb500000000000000000000000000000000000000000000000000000000815260040160405180910390fd5b6002600081905550565b611267838473ffffffffffffffffffffffffffffffffffffffff1663a9059cbb8585604051602401611220929190611ade565b604051602081830303815290604052915060e01b6020820180517bffffffffffffffffffffffffffffffffffffffffffffffffffffffff838183161783525050505061145f565b505050565b6001600081905550565b61127e611501565b73ffffffffffffffffffffffffffffffffffffffff1661129c610d76565b73ffffffffffffffffffffffffffffffffffffffff16146112fb576112bf611501565b6040517f118cdaa70000000000000000000000000000000000000000000000000000000081526004016112f291906116af565b60405180910390fd5b565b6000600160009054906101000a900473ffffffffffffffffffffffffffffffffffffffff16905081600160006101000a81548173ffffffffffffffffffffffffffffffffffffffff021916908373ffffffffffffffffffffffffffffffffffffffff1602179055508173ffffffffffffffffffffffffffffffffffffffff168173ffffffffffffffffffffffffffffffffffffffff167f8be0079c531659141344cd1fd0a4f28419497f9722a3daafe3b4186f6b6457e060405160405180910390a35050565b6000818311156113d357816113d5565b825b905092915050565b611459848573ffffffffffffffffffffffffffffffffffffffff166323b872dd86868660405160240161141293929190611b07565b604051602081830303815290604052915060e01b6020820180517bffffffffffffffffffffffffffffffffffffffffffffffffffffffff838183161783525050505061145f565b50505050565b600080602060008451602086016000885af180611482576040513d6000823e3d81fd5b3d92506000519150506000821461149d5760018114156114b9565b60008473ffffffffffffffffffffffffffffffffffffffff163b145b156114fb57836040517f5274afe70000000000000000000000000000000000000000000000000000000081526004016114f291906116af565b60405180910390fd5b50505050565b600033905090565b600080fd5b600073ffffffffffffffffffffffffffffffffffffffff82169050919050565b60006115398261150e565b9050919050565b6115498161152e565b811461155457600080fd5b50565b60008135905061156681611540565b92915050565b60006020828403121561158257611581611509565b5b600061159084828501611557565b91505092915050565b6000819050919050565b6115ac81611599565b82525050565b60006020820190506115c760008301846115a3565b92915050565b6115d681611599565b81146115e157600080fd5b50565b6000813590506115f3816115cd565b92915050565b60006020828403121561160f5761160e611509565b5b600061161d848285016115e4565b91505092915050565b6000819050919050565b600061164b6116466116418461150e565b611626565b61150e565b9050919050565b600061165d82611630565b9050919050565b600061166f82611652565b9050919050565b61167f81611664565b82525050565b600060208201905061169a6000830184611676565b92915050565b6116a98161152e565b82525050565b60006020820190506116c460008301846116a0565b92915050565b7f4e487b7100000000000000000000000000000000000000000000000000000000600052601160045260246000fd5b600061170482611599565b915061170f83611599565b9250828203905081811115611727576117266116ca565b5b92915050565b600061173882611599565b915061174383611599565b925082820261175181611599565b91508282048414831517611768576117676116ca565b5b5092915050565b7f4e487b7100000000000000000000000000000000000000000000000000000000600052601260045260246000fd5b60006117a982611599565b91506117b483611599565b9250826117c4576117c361176f565b5b828204905092915050565b60006117da82611599565b91506117e583611599565b92508282019050808211156117fd576117fc6116ca565b5b92915050565b600082825260208201905092915050565b7f43616e6e6f742077697468647261772030000000000000000000000000000000600082015250565b600061184a601183611803565b915061185582611814565b602082019050919050565b600060208201905081810360008301526118798161183d565b9050919050565b7f496e73756666696369656e742062616c616e6365000000000000000000000000600082015250565b60006118b6601483611803565b91506118c182611880565b602082019050919050565b600060208201905081810360008301526118e5816118a9565b9050919050565b7f526577617264207261746520746f6f206c6f7700000000000000000000000000600082015250565b6000611922601383611803565b915061192d826118ec565b602082019050919050565b6000602082019050818103600083015261195181611915565b9050919050565b600081519050611967816115cd565b92915050565b60006020828403121561198357611982611509565b5b600061199184828501611958565b91505092915050565b7f52657761726420616d6f756e74203e2062616c616e6365000000000000000000600082015250565b60006119d0601783611803565b91506119db8261199a565b602082019050919050565b600060208201905081810360008301526119ff816119c3565b9050919050565b7f43616e6e6f74207374616b652030000000000000000000000000000000000000600082015250565b6000611a3c600e83611803565b9150611a4782611a06565b602082019050919050565b60006020820190508181036000830152611a6b81611a2f565b9050919050565b7f526577617264206475726174696f6e206e6f742066696e697368656400000000600082015250565b6000611aa8601c83611803565b9150611ab382611a72565b602082019050919050565b60006020820190508181036000830152611ad781611a9b565b9050919050565b6000604082019050611af360008301856116a0565b611b0060208301846115a3565b9392505050565b6000606082019050611b1c60008301866116a0565b611b2960208301856116a0565b611b3660408301846115a3565b94935050505056fea264697066735822122019f88a9a2d2da3797659e8ba10c11b651b2624e62c4d0b164e3231d0fa78e82664736f6c63430008140033",
  "linkReferences": {},
  "deployedLinkReferences": {}
}